:020000040000FA
:04000000DFEF13F02B
:100F0000000A28000228003027000000005E2400AC
:100F10000000000000000000000000000000000AC7
:100F200040010000400100416E676C653A202020BE
:100F300020202020202020004465636F6465642009
:100F400076616C75653A2020002533642E25303299
:100F5000642563002533642563202020002530327A
:030F60006400002A
:100F640042C0D9FF43C0DAFFDECFF6FFDDCFF7FF83
:100F7400000EF86E0800F550250AD8A4C4EF07F057
:100F8400C6EF07F09AEF09F042C0D9FF43C0DAFF79
:100F9400DE2A000EDD22000E00016E6F000E6D6F62
:100FA4006DC071F06EC072F06F697069000E536E9F
:100FB400000E526E2BEF08F00001718142C0D9FF80
:100FC40043C0DAFFDE2A000EDD222BEF08F0000119
:100FD4007183E0EF07F000017185E0EF07F0000195
:100FE4007187E0EF07F000017189E0EF07F0000E70
:100FF400536E010E526E2BEF08F042C0D9FF43C06E
:10100400DAFFDECFF6FFDDCFF7FF000EF86E080043
:10101400F550466E476A4750000AD8B414EF08F0FA
:10102400F9EF07F04650200AD8B4F1EF07F0030AAD
:10103400D8B4F5EF07F0080AD8B4EDEF07F0060AC4
:10104400D8B4DEEF07F01D0AD8B4E9EF07F0F9EFE2
:1010540007F052505310D8B432EF08F034EF08F0D0
:10106400FFEF07F0000171A13AEF08F03CEF08F040
:101074003DEF08F0719342C0D9FF43C0DAFFDECFE1
:10108400F6FFDDCFF7FF000EF86E0800F5502A0AD0
:10109400D8A44FEF08F051EF08F07AEF08F042C0FF
:1010A400D9FF43C0DAFFDE2A000EDD2244C0D9FF97
:1010B40045C0DAFFDFCF46F0020EDE26DFCF47F071
:1010C400000EDD2246C0D9FF47C0DAFFDECF6DF047
:1010D400DDCF6EF06EBF73EF08F071EF08F0BFEF75
:1010E40008F071816D6D6E1FD8B06E2BBFEF08F0E4
:1010F40042C0D9FF43C0DAFFDECF08F0DDCF09F0EC
:1011040029EC0BF008C06DF009C06EF091EF08F007
:1011140042C0D9FF43C0DAFFDE2A000EDD22D00E22
:10112400466EFF0E476E42C0D9FF43C0DAFFDECFE2
:10113400F6FFDDCFF7FF000EF86E0800F550486E9D
:10114400496A465048264750492249500AE10A0E46
:10115400485CD8A0B0EF08F0B3EF08F0010EB4EF8C
:1011640008F0000E546E556A54505510D8A4BDEFC3
:1011740008F0BFEF08F08AEF08F042C0D9FF43C07F
:10118400DAFFDECFF6FFDDCFF7FF000EF86E0800C2
:10119400F550630AD8A4D1EF08F0D3EF08F0FAEFC2
:1011A40008F042C0D9FF43C0DAFFDE2A000EDD2278
:1011B40044C0D9FF45C0DAFFDFCF46F0020EDE2679
:1011C400DFCF47F0000EDD2246C0D9FF47C0DAFF6B
:1011D400DF50566E40C00AF041C00BF056C00CF010
:1011E4001BEC0EF00AC040F00BC041F0B7EF09F061
:1011F40042C0D9FF43C0DAFFDECFF6FFDDCFF7FFF1
:10120400000EF86E0800F550640AD8B40CEF09F02B
:101214000EEF09F022EF09F042C0D9FF43C0DAFF14
:10122400DECFF6FFDDCFF7FF000EF86E0800F550B5
:10123400690AD8A420EF09F022EF09F062EF09F05F
:1012440042C0D9FF43C0DAFFDE2A000EDD2244C0CB
:10125400D9FF45C0DAFFDFCF46F0020EDE26DFCF2E
:1012640047F0000EDD2246C0D9FF47C0DAFFDECFCB
:101274004AF0DDCF4BF0000E4BBEFF0E4C6E4D6EB0
:101284004E6E4F6E506E516E40C01CF041C01DF04A
:101294004AC01EF04BC01FF04CC020F04DC021F0DE
:1012A4004EC022F04FC023F050C024F051C025F0AE
:1012B400B8EC09F01CC040F01DC041F0B7EF09F0D4
:1012C40042C0D9FF43C0DAFFDECFF6FFDDCFF7FF20
:1012D400000EF86E0800F550250AD8A474EF09F042
:1012E40076EF09F08DEF09F042C0D9FF43C0DAFF71
:1012F400DE2A000EDD22000E026E250E016E40C0B5
:1013040003F041C004F087EC0EF0000E416E010EB4
:10131400406EB7EF09F042C0D9FF43C0DAFFDE2ABE
:10132400000EDD22000E416E000E406EB7EF09F094
:1013340042C0D9FF43C0DAFFDECFF6FFDDCFF7FFAF
:10134400000EF86E0800F550016E026A40C003F00A
:1013540041C004F087EC0EF042C0D9FF43C0DAFF6D
:10136400DE2A000EDD2287EF09F012001EC036F0DF
:101374001FC037F020C038F021C039F022C03AF045
:1013840023C03BF024C03CF025C03DF03DBECDEF72
:1013940009F0D0EF09F0010ED1EF09F0000E346E20
:1013A400356A34503510D8B4DAEF09F0DCEF09F0BF
:1013B400ECEF09F03D1E3C1E3B1E3A1E391E381E42
:1013C400371E366C000E3722382239223A223B224D
:1013D4003C223D22000170BFF2EF09F0F4EF09F066
:1013E400F5EF09F0719370BF02EF0AF0705106E156
:1013F4006F05D8B000EF0AF002EF0AF008EF0AF028
:10140400000E316E010E306E0CEF0AF06FC030F03A
:1014140070C031F06DC032F06EC033F0345035100E
:10142400D8A417EF0AF019EF0AF020EF0AF071A51B
:101434001EEF0AF020EF0AF023EF0AF03206D8A0DC
:101444003306000E3F6E1F0E3E6E000E926FA7EF26
:101454000AF03E06D8A03F06730E3E24D96E000E55
:101464003F20DA6E36C001F037C002F038C003F016
:1014740039C004F03AC005F03BC006F03CC007F0A8
:101484003DC008F00A0E096E000E0A6E000E0B6EC7
:10149400000E0C6E000E0D6E000E0E6E000E0F6E22
:1014A400000E106EBFEC0CF001C026F002C027F055
:1014B40003C028F004C029F005C02AF006C02BF0B0
:1014C40007C02CF008C02DF026C013F028C014F07B
:1014D4000FEC12F01350300FDF6E3006D8A0310637
:1014E4003206D8A0330636C001F037C002F038C047
:1014F40003F039C004F03AC005F03BC006F03CC02C
:1015040007F03DC008F00A0E096E000E0A6E000EC8
:101514000B6E000E0C6E000E0D6E000E0E6E000EA5
:101524000F6E000E106EFBEC0BF001C036F002C023
:1015340037F003C038F004C039F005C03AF006C0F3
:101544003BF007C03CF008C03DF03FBEB2EF0AF0EC
:101554003F5008E13E04D8A0B2EF0AF0B4EF0AF01D
:10156400E5EF0AF036503710381039103A103B10B6
:101574003C103D10D8A4C1EF0AF0C3EF0AF02BEFE2
:101584000AF031BED0EF0AF0315006E13004D8B091
:10159400CEEF0AF0D0EF0AF02BEF0AF033BEDBEF08
:1015A4000AF0335008E13204D8A0DBEF0AF0DDEF93
:1015B4000AF0E5EF0AF0000171B3E3EF0AF0E5EF9A
:1015C4000AF02BEF0AF034503510D8A4ECEF0AF0EF
:1015D400EEEF0AF0F6EF0AF0000171A5F4EF0AF05D
:1015E400F6EF0AF014EF0BF03E06D8A03F06345095
:1015F4003510D8A400EF0BF002EF0BF008EF0BF05E
:10160400000E2F6E2B0E2E6E0CEF0BF0000E2F6EB5
:101614002D0E2E6E730E3E24D96E000E3F20DA6E10
:101624002EC0DFFF1CC011F01DC012F0730E3E244B
:10163400136E000E3F20146E32C015F033C016F046
:10164400ECEC0EF011C01CF012C01DF01200000EE4
:10165400166E000E156E000E0F6E000E0E6E35EF38
:101664000BF0084A092A010E146E08C0F6FF09C0DF
:10167400F7FF000EF86E0800F550200AD8B445EFC5
:101684000BF047EF0BF066EF0BF0F70E0A6EFF0E50
:101694000B6E08C0F6FF09C0F7FF000EF86E0800D5
:1016A400F5500C6E0D6A0A500C260B500D220D508D
:1016B40009E1050E0C5CD8A062EF0BF064EF0BF0AF
:1016C40066EF0BF0000E146E14C010F0116A105087
:1016D4001110D8A470EF0BF072EF0BF033EF0BF096
:1016E4007CEF0BF0000E0F6E010E0E6E084A092AF5
:1016F400B5EF0BF008C0F6FF09C0F7FF000EF86E57
:101704000800F5500A6E0B6A0B50000AD8B48DEF2E
:101714000BF0B5EF0BF00A502B0AD8B478EF0BF0AE
:10172400060AD8B474EF0BF0B5EF0BF015C001F056
:1017340016C002F0000E046E0A0E036E65EC13F080
:1017440008C0F6FF09C0F7FF000EF86E0800F55058
:10175400015E000E025A300E0124156E000E0220A6
:10176400166E78EF0BF0D00E0A6EFF0E0B6E08C0EB
:10177400F6FF09C0F7FF000EF86E0800F5500C6E76
:101784000D6A0A500C260B500D220D500AE10A0E68
:101794000C5CD8A0D0EF0BF0D3EF0BF0010ED4EF1C
:1017A4000BF0000E126E136A12501310D8A4DDEF62
:1017B4000BF0DFEF0BF098EF0BF00E500F10D8A4E6
:1017C400E6EF0BF0E8EF0BF0F6EF0BF015C00AF0C4
:1017D40016C00BF00A1E0B1E0A4A0B2A0AC008F098
:1017E4000BC009F0FAEF0BF015C008F016C009F0B1
:1017F4001200000E126E10BE04EF0CF002EF0CF09B
:1018040016EF0CF0101E0F1E0E1E0D1E0C1E0B1ECE
:101814000A1E096C000E0A220B220C220D220E2233
:101824000F221022010E126E08BE1DEF0CF01BEFEA
:101834000CF02FEF0CF0081E071E061E051E041EDA
:10184400031E021E016C000E022203220422052242
:10185400062207220822010E121A20EE13F0070EA8
:10186400DE6AE806FDE209500A100B100C100D1098
:101874000E100F101010D8B442EF0CF044EF0CF01F
:1018840096EF0CF0010E116E52EF0CF0D890093661
:101894000A360B360C360D360E360F361036112A34
:1018A40010AE57EF0CF059EF0CF048EF0CF0D89055
:1018B40013361436153616361736183619361A36C0
:1018C4000950015C0A5002580B5003580C5004583C
:1018D4000D5005580E5006580F5007581050085810
:1018E400D8A077EF0CF079EF0CF08AEF0CF00950E8
:1018F400015E0A50025A0B50035A0C50045A0D5000
:10190400055A0E50065A0F50075A1050085A1380A1
:10191400D89010320F320E320D320C320B320A32A2
:101924000932112E59EF0CF01250D8B49CEF0CF080
:101934009EEF0CF0AEEF0CF01A1E191E181E171EA7
:10194400161E151E141E136C000E142215221622C8
:101954001722182219221A2213C001F014C002F00F
:1019640015C003F016C004F017C005F018C006F047
:1019740019C007F01AC008F01200000E126E08BE5B
:10198400C8EF0CF0C6EF0CF0DAEF0CF0081E071EDF
:10199400061E051E041E031E021E016C000E0222FA
:1019A400032204220522062207220822010E126EB7
:1019B40010BEE1EF0CF0DFEF0CF0F1EF0CF0101EB5
:1019C4000F1E0E1E0D1E0C1E0B1E0A1E096C000E91
:1019D4000A220B220C220D220E220F221022095061
:1019E4000A100B100C100D100E100F101010D8B49C
:1019F400FEEF0CF000EF0DF048EF0DF0010E116E4C
:101A04000EEF0DF0D89009360A360B360C360D362B
:101A14000E360F361036112A10AE13EF0DF015EFF7
:101A24000DF004EF0DF00950015C0A5002580B5000
:101A340003580C5004580D5005580E5006580F50BA
:101A4400075810500858D8A02AEF0DF02CEF0DF0CD
:101A54003CEF0DF00950015E0A50025A0B50035A34
:101A64000C50045A0D50055A0E50065A0F50075A7E
:101A74001050085AD89010320F320E320D320C32F8
:101A84000B320A320932112E15EF0DF01250D8B470
:101A94004EEF0DF050EF0DF060EF0DF0081E071E35
:101AA400061E051E041E031E021E016C000E0222E9
:101AB40003220422052206220722082201C001F083
:101AC40002C002F003C003F004C004F005C005F036
:101AD40006C006F007C007F008C008F0120020EEA8
:101AE400A7F0070EDE6AE806FDE277CEB1F0B1C0DA
:101AF4005FF0030E5F160001B141E8423F0B0C0B8F
:101B04005F10B16FB1C05FF00F0E5F165F50016ED2
:101B1400026A080E046ECA0E036E65EC13F001C06F
:101B2400AFF002C0B0F0A70E0001936F000E946FE7
:101B34005D0E956F0F0E966FB1C05FF00F0E5F16BE
:101B44005F50976F986B79EC11F0A70E176E000E2B
:101B5400186E010E196E0E0E1A6E4DEC10F0AFC019
:101B640001F0B0C002F0000E046E640E036E47EC88
:101B740011F001500210D8B4C2EF0DF0C4EF0DF013
:101B8400F2EF0DF0A70E0001936F000E946F490E53
:101B9400956F0F0E966FAFC001F0B0C002F0000E4B
:101BA400046E640E036EDAEC10F001C097F002C00C
:101BB40098F0AFC001F0B0C002F0000E046E640EE5
:101BC400036E47EC11F001C099F002C09AF0000EC8
:101BD40000019C6FDF0E9B6F79EC11F010EF0EF09B
:101BE400A70E0001936F000E946F540E956F0F0EA5
:101BF400966FAFC001F0B0C002F0000E046E640E28
:101C0400036EDAEC10F001C097F002C098F0000EF9
:101C140000019A6FDF0E996F79EC11F0A70E176E21
:101C2400000E186E000E196E090E1A6E4DEC10F0AF
:101C3400120000016D516E11D8A423EF0EF025EFB0
:101C44000EF02BEF0EF06DC010F06EC011F031EFFE
:101C54000EF0FF0E6D25106EFF0E6E21116E71A138
:101C640036EF0EF038EF0EF041EF0EF00CC001F03D
:101C7400026A0AC003F00BC004F087EC0EF011BE38
:101C840046EF0EF048EF0EF04AEF0EF04EEF0EF076
:101C9400000E116E000E106E000E0F6E000E0E6E12
:101CA40060EF0EF0000E026E200E016E0AC003F00B
:101CB4000BC004F087EC0EF00E4A0F2A10500E5C95
:101CC4000F50800A0D6E1150800A0D58D8A06DEF88
:101CD4000EF06FEF0EF054EF0EF0000171B175EFDE
:101CE4000EF077EF0EF080EF0EF00CC001F0026AF8
:101CF4000AC003F00BC004F087EC0EF0010E0E24B2
:101D04000A6E000E0F200B6E120003500410D8B49C
:101D14008EEF0EF090EF0EF099EF0EF003500410DA
:101D2400D8A497EF0EF099EF0EF09EEF0EF001504D
:101D340007EC14F0EBEF0EF020EE04F00350D9267C
:101D44000450DA22DE50DE10D8B4ABEF0EF0ADEF63
:101D54000EF0C8EF0EF020EE04F00350D926045024
:101D6400DA2210EE02F00350E1260450E222DE50A3
:101D7400E65CE650800A096EDE50800A0958D8B045
:101D8400C6EF0EF0C8EF0EF0EBEF0EF020EE02F00F
:101D94000350D9260450DA22DECF05F0DDCF06F059
:101DA40003C0D9FF04C0DAFFDECF07F0DDCF08F0AF
:101DB40005500724D96E06500820DA6E01C0DFFFF3
:101DC40020EE02F00350D9260450DA22DE2A000E57
:101DD400DD221200000171A1F2EF0EF0F4EF0EF01B
:101DE400FEEF0EF013C00AF014C00BF011C00CF09B
:101DF40012C00DF0EDEC11F016BE03EF0FF005EF7D
:101E04000FF00BEF0FF015C01AF016C01BF00FEF18
:101E14000FF0000E1B6E000E1A6E000E196E000EEF
:101E2400186E21EF0FF0000E026E200E016E11C02D
:101E340003F012C004F087EC0EF0184A192A1A5065
:101E4400185C1950800A176E1B50800A1758D8A0C6
:101E54002EEF0FF030EF0FF015EF0FF0000171B11E
:101E640036EF0FF038EF0FF042EF0FF013C00AF027
:101E740014C00BF011C00CF012C00DF0EDEC11F019
:101E840013C001F014C002F068EC12F01A500124DF
:101E9400116E1B500220126E1200026E95BA55EF9D
:101EA4000FF057EF0FF0A9EF0FF00250040D010EE1
:101EB400F326000EF4221F0EF324F66E0F0EF42008
:101EC400F76EF86A000EF8220800F5CF94FF02506E
:101ED400040D1F0EF324F66E0F0EF420F76EF86A4D
:101EE400000EF8220800F5CF95FF000E966E025002
:101EF400040D020EF326000EF4221F0EF324F66ED8
:101F04000F0EF420F76EF86A000EF8220800F5CFE1
:101F140092FF0250040D030EF326000EF4221F0E4E
:101F2400F324F66E0F0EF420F76EF86A000EF82212
:101F34000800F5CF01F0013A014601468950011825
:101F4400BF0B0118896E958A010EAAEF0FF0000EDF
:101F5400120085888280828EF6EC13F0000EEFEC7E
:101F640013F0000E026E280E016E3EEC13F0000E0C
:101F74000E6E030ECBEC11F0000E026E0A0E016E13
:101F84003EEC13F0000E0E6E030ECBEC11F0000EBF
:101F9400026E0A0E016E3EEC13F0000E0E6E030E7E
:101FA400CBEC11F0000E026E0A0E016E3EEC13F043
:101FB400000E0E6E020ECBEC11F0000E0E6E2C0E07
:101FC40098EC10F0000E0E6E0C0E98EC10F0000E53
:101FD4000E6E060E98EC10F0000E0E6E0C0E98ECC1
:101FE40010F0000E026E020E016E3EEC13F0BEEC19
:101FF40013F0B2EC13F01200000E866E000E856E24
:10200400000E826E000E836E000E846E070E8B6EC1
:102014007E0E876E8868AF0E896EEF0E8A6EE30EB1
:102024000F01216F8F0E1C6F1469070E296F4E0E5E
:102034000C6F0C0E206F000E286F000E136F300E05
:102044000B6F030E1B6F000E276F000E0A6F000E3E
:10205400126F000E1A6F000E1F6F0969116919695A
:102064001E69070E266F0869106918691D690F0E2D
:10207400256F160E0E01B26F040E1F6F1B0E226F1A
:10208400100EF66F1A0E216F050E206F0F0EF86FEB
:10209400150EB36F12001AC015F01950CAEC13F0E4
:1020A400000E1D6E1D5017241B6E000E18201C6E92
:1020B4001BC0F6FF1CC0F7FF000EF86E0E0EF7648F
:1020C40003D00800F55005D0F6CFE1FFF7CFE2FFCB
:1020D400E7500009D8B471EF10F073EF10F08CEFF3
:1020E40010F01D5017241B6E000E18201C6E1BC010
:1020F400F6FF1CC0F7FF000EF86E0E0EF76403D057
:102104000800F55005D0F6CFE1FFF7CFE2FFE75026
:10211400E8EC13F01D2A0F0E1D6493EF10F095EFF9
:1021240010F054EF10F0BEEC13F01200126E1238DF
:102134000F0B106E12500F0B116E0EC00FF0D890D3
:102144000F36D8900F361038F00B0F10136E0EC0E8
:102154000FF0D8900F36D8900F361138F00B0F10BF
:10216400146E1350EFEC13F0000E026E020E016EAB
:102174003EEC13F013500809EFEC13F0000E026E5E
:10218400020E016E3EEC13F01450EFEC13F0000E4F
:10219400026E020E016E3EEC13F014500809EFECCF
:1021A40013F0000E026E280E016E3EEC13F01200C6
:1021B400000E066E000E056E03500410D8B4E5EF51
:1021C40010F0E7EF10F00FEF11F0010E076EEFEFD4
:1021D40010F0D89003360436072A04AEF4EF10F05A
:1021E400F6EF10F0EBEF10F0D890053606360350FA
:1021F400015C04500258D8A002EF11F004EF11F072
:1022040009EF11F00350015E0450025A0580D89082
:1022140004320332072EF6EF10F005C001F006C0B9
:1022240002F0120059C05DF05AC05EF0000E0001C9
:102234006C6F000E6B6F32EF11F057C040F058C056
:1022440041F05D0E426E000E436E5BC044F05CC014
:1022540045F0B2EC07F0405000016B2741506C236D
:102264005DC0F6FF5EC0F7FF000EF86E0800F55083
:102274000009D8A440EF11F042EF11F01FEF11F064
:102284006BC057F06CC058F0120003500410D8B45F
:102294004EEF11F050EF11F074EF11F0010E056ED6
:1022A40058EF11F0D89003360436052A04AE5DEFDA
:1022B40011F05FEF11F054EF11F00350015C045082
:1022C4000258D8A068EF11F06AEF11F06EEF11F028
:1022D4000350015E0450025AD89004320332052E92
:1022E4005FEF11F001C001F002C002F01200970E7E
:1022F40000019F6F000EA06F93C0A1F094C0A2F0E4
:10230400000EA46F000EA36F000EA66F000EA56F43
:10231400A10E576E000E586E95C059F096C05AF033
:102324009F0E5B6E000E5C6E14EC11F00001A35165
:102334009325D96EA4519421DA6E000EDF6E12003B
:10234400010E076E200E01180210D8B4ACEF11F084
:10235400AEEF11F0C7EF11F0F70E036EFF0E046E2F
:1023640001C005F002C006F0035005260450062201
:10237400065009E1050E055CD8A0C3EF11F0C5EFC6
:1023840011F0C7EF11F0000E076E07C001F0026AEA
:102394001200106E0EC00FF0D8900F36D8900F3682
:1023A4001038F00B0F10116E1150EFEC13F01150A8
:1023B4000809EFEC13F0000E026E010E016E3EEC04
:1023C40013F01150EFEC13F0000E026E280E016EA4
:1023D4003EEC13F01200000E106E000E0F6EFEEFB6
:1023E40011F00EC001F0026A0CC003F00DC004F03D
:1023F40087EC0EF00F4A102A0F500A24D96E1050A1
:102404000B20DA6EDF500E6E0E50D8A40CEF12F0D3
:102414000EEF12F0F3EF11F0120014BE1CEF12F0E5
:10242400145006E11304D8B01AEF12F01CEF12F0A6
:102434002AEF12F013C015F014C016F0151E161E64
:10244400154A162A15C013F016C014F02EEF12F018
:1024540013C013F014C014F0120002C006F003C03D
:1024640007F03EEF12F006C0D9FF07C0DAFFDF50D5
:1024740098EC13F0064A072A0406D8A00506042897
:1024840006E10528D8A449EF12F04BEF12F035EF1E
:1024940012F01200D00E036EFF0E046E01C005F0A0
:1024A40002C006F0035005260450062206500AE135
:1024B4000A0E055CD8A061EF12F064EF12F0010E71
:1024C40065EF12F0000E016E026A120001C003F003
:1024D40002C004F070EF12F0014A022A01C0D9FFD1
:1024E40002C0DAFFDF50D8A47AEF12F07CEF12F0CA
:1024F4006EEF12F00350015C016E04500258026E3C
:102504001200200EFCEC13F0B2EC13F0270E176E41
:102514000F0E186E000E196E000E1A6E4DEC10F0B0
:10252400380E176E0F0E186E010E196E000E1A6E0D
:102534004DEC10F01200096E000EB6EC12F0859806
:10254400400E0A6E09C00BF008C00CF00A0E026EB1
:10255400000E036E000E056E030E046E2FEC12F0D7
:10256400858805EC14F01200056EBDEF12F001EC45
:1025740014F0CEEF12F00550036E046A0450000A02
:10258400D8B4C7EF12F0CEEF12F00350000AD8B45B
:10259400B9EF12F0CEEF12F01200086E000EB6EC96
:1025A40012F08290000E096E08C00AF0090E026E45
:1025B400000E036E000E056E020E046E2FEC12F078
:1025C400828005EC14F01200000E0E015A6F030E07
:1025D4005B6F0F0E5C6F0F0E5D6F0F0E5E6F010E63
:1025E4005F6F000E606F000E616F000E626F810EF0
:1025F400596F1200000E0E01506F030E516F0F0E33
:10260400526F0F0E536F020E546F010E556F000E72
:10261400566F000E576F400E586F810E4F6F1200A9
:10262400000E0E01326F250E336F0F0E346F0F0E36
:10263400356F010E366F020E376F000E386F000EC5
:10264400396F400E3A6F810E316F1200000E0E0189
:10265400286F220E296F0F0E2A6F0F0E2B6F000E9C
:102664002C6F020E2D6F000E2E6F000E2F6F400E7A
:10267400306F810E276F120044EF13F0530EE82ED3
:10268400FED700F00106D8A00206012806E10228C0
:10269400D8A44FEF13F051EF13F040EF13F01200F2
:1026A4008AEC13F078EC13F0FEEC0FF0A6EC13F0C8
:1026B40028EC13F0FCEC12F0E6EC12F012EC13F040
:1026C400ABEC0FF0120001500302F3CF05F0F4CF8E
:1026D40006F001500402F350062602500302F350A0
:1026E400062605C001F006C002F01200160E0E0107
:1026F400B26F150EB36F0F0EF86F100EF66F400E1B
:10270400946E000E956E010E926E899C959A12003D
:10271400000E0E01DC6F000EDD6F000EDE6F000E8A
:10272400DF6F000EE06F000EE16F1200016E01C05A
:1027340091FF0E01C8A1A1EF13F0A3EF13F09BEFDB
:1027440013F0C89191501200600E0E01D36F000E69
:10275400D56F000ED76F000ED96F000ED86F120020
:10276400000E0E6E010E98EC10F0000E026E020EBA
:10277400016E3EEC13F01200000E0E6E020E98EC89
:1027840010F0000E026E020E016E3EEC13F0120009
:10279400166E000E0E6E1650280DF3501524800987
:1027A40098EC10F0120052EC13F083EC12F071EC80
:1027B4000DF0D9EF13F000EF00F000EE60F0330EEF
:1027C400EE6AE806FDE10001D5EF13F0156E010E87
:1027D4000E6E155098EC10F012000D6E0DC008F03E
:1027E400150E9DEC12F01200000E086E010E9DEC09
:1027F40012F012000B6E0B50CFEC12F01200000E10
:0C2804004FEC0FF01200959A1200120029
:020000040020DA
:10000000FFFFFFFFFFFFFFFFFFFFFFFFFFFFFFFF00
:10001000FFFFFFFFFFFFFFFFFFFFFFFFFFFFFFFFF0
:10002000FFFFFFFFFFFFFFFFFFFFFFFFFFFFFFFFE0
:10003000FFFFFFFFFFFFFFFFFFFFFFFFFFFFFFFFD0
:10004000FFFFFFFFFFFFFFFFFFFFFFFFFFFFFFFFC0
:10005000FFFFFFFFFFFFFFFFFFFFFFFFFFFFFFFFB0
:10006000FFFFFFFFFFFFFFFFFFFFFFFFFFFFFFFFA0
:10007000FFFFFFFFFFFFFFFFFFFFFFFFFFFFFFFF90
:10008000FFFFFFFFFFFFFFFFFFFFFFFFFFFFFFFF80
:10009000FFFFFFFFFFFFFFFFFFFFFFFFFFFFFFFF70
:1000A000FFFFFFFFFFFFFFFFFFFFFFFFFFFFFFFF60
:1000B000FFFFFFFFFFFFFFFFFFFFFFFFFFFFFFFF50
:1000C000FFFFFFFFFFFFFFFFFFFFFFFFFFFFFFFF40
:1000D000FFFFFFFFFFFFFFFFFFFFFFFFFFFFFFFF30
:1000E000FFFFFFFFFFFFFFFFFFFFFFFFFFFFFFFF20
:1000F000FFFFFFFFFFFFFFFFFFFFFFFFFFFFFFFF10
:020000040030CA
:0C000000ECFFFFFF9FFFFFFFFFFFFFFF73
:00000001FF
